:1000000000300020E904000035050000390500003B
:1000100000000000000000000000000000000000E0
:10002000000000000000000000000000655B000010
:100030000000000000000000715C0000C15C0000D6
:1000400031050000310500003105000031050000D8
:1000500031050000310500003105000031050000C8
:10006000490500004D050000510500005505000040
:10007000590500002D370000610500003105000022
:100080003105000031050000310500003105000098
:100090006505000031050000E13900003105000070
:1000A0003105000031050000310500003105000078
:1000B0003105000031050000690500006D050000F4
:10040000FFFFFFFFFFFFFFFFFFFFFFFFFFFFFEFFFD
:1004100010B5064C2378002B07D1054B002B02D0DA
:10042000044800E000BF0123237010BD00F1FF1F4E
:1004300000000000B47A000008B5084B002B03D080
:100440000748084900E000BF07480368002B03D0B5
:10045000064B002B00D0984708BDC04600000000A6
:10046000B47A000004F1FF1FFCF0FF1F0000000041
:10047000164B002B00D1144B9D46402292029A1A33
:10048000924600218B460F461348144A121A06F072
:100490008EFF0F4B002B00D098470E4B002B00D047
:1004A00098470020002104000D000D48002802D0CC
:1004B0000C4800E000BF06F04BFF2000290001F0CF
:1004C000B3F806F02FFFC0460000080000300020FF
:1004D000000000000000000000F1FF1F681D002068
:1004E000000000000000000072B60A480A490160DE
:1004F0000A6882F30888094880470949094A0A4B73
:100500009B1A03DD043BC858D050FBDC62B6074899
:100510008047000008ED00E000000000DD720000F0
:10052000DC7A000000F0FF1F00F1FF1F71040000E3
:100530000F4800470F4800470F4800470F48004743
:100540000F4800470F4800470F4800470F48004733
:100550000F4800470F4800470F4800470F48004723
:100560000F4800470F4800470F4800470E48004714
:10057000310500003505000039050000655B00000D
:10058000715C0000C15C00007D6400009D6400009F
:10059000BD670000FD670000216D0000456D000093
:1005A000696D000011670000BD640000002934D0AF
:1005B0000123002210B488422CD301242407A14235
:1005C00004D2814202D209011B01F8E7E400A142F2
:1005D00004D2814202D249005B00F8E7884201D38D
:1005E000401A1A434C08A04202D3001B5C08224365
:1005F0008C08A04202D3001B9C082243CC08A042D6
:1006000002D3001BDC082243002803D01B0901D0C1
:100610000909E3E7101C10BC7047002801D0002036
:10062000C04307B4024802A14018029003BDC0466F
:10063000D90000000029F0D003B5FFF7B9FF0EBCC8
:100640004243891A1847C046002941D010B4041CFF
:100650004C40A44601230022002900D5494200282D
:1006600000D5404288422CD301242407A14204D261
:10067000814202D209011B01F8E7E400A14204D241
:10068000814202D249005B00F8E7884201D3401A58
:100690001A434C08A04202D3001B5C0822438C087A
:1006A000A04202D3001B9C082243CC08A04202D3E4
:1006B000001BDC082243002803D01B0901D00909D4
:1006C000E3E7101C6446002C00D5404210BC704784
:1006D000002806D003DB0020C043400801E0802052
:1006E000000607B4024802A14018029003BDC046AC
:1006F000190000000029EBD003B5FFF7A7FF0EBCDF
:100700004243891A1847C0467047C046002B11D192
:10071000002A0FD1002900D1002802D00021C943AE
:10072000081C07B4024802A14018029003BDC0464D
:10073000D9FFFFFF03B4684601B5029800F044F802
:10074000019B9E4602B00CBC7047C0469C46030409
:10075000F0B51B0C17043F0C150C1E1C041C000CE0
:100760007E436B4347434543FB18300C18188742C0
:1007700002D980235B02ED18030CED1863465C433D
:100780004A433604360CA118000480194919F0BDFB
:10079000F0B583B0161C1F1C0090019100F02EF8DC
:1007A000041C0D1C221C2B1C301C391CFFF7CEFF17
:1007B000009A019B121A8B410899201C0A604B6019
:1007C000291C03B0F0BDC046F0B583B0141C1D1C3D
:1007D0000090019100F0EEF9221C2B1C061C0F1C4E
:1007E000FFF7B4FF009A019B121A8B410899301C45
:1007F0000A604B60391C03B0F0BDC046F0B54446FA
:100800005F4656464D46F0B41C1C85B0002900DA00
:10081000DBE00F1C0021061C8A46101C191C002C52
:1008200000DAC9E00196009089468046002951D13E
:10083000B84200D871E000F07FFB002809D02023E7
:100840004546311C1B1A85408740D940A8460F43B6
:1008500086404246150C13041B0C291C381C9B4671
:10086000FFF7A4FE5B464343041C291C381C994631
:10087000FFF7E0FE330C08041843814509D94044D2
:10088000631E804500D978E1814500D875E1023CBE
:1008900040444946411A8946081C291CFFF786FE38
:1008A0005A464243071C291C48469346FFF7C2FE9E
:1008B00036040904360C0E43B34507D946447B1E63
:1008C000B04502D8023FB34500D81F1C240427437B
:1008D000002403E0B94211D9002400275246381CF5
:1008E000211C002A03D03B1C00215842A14105B025
:1008F0003CBC90469946A246AB46F0BD081C00F0B1
:100900001BFB041E00D0BFE0B94500D242E1019DAF
:100910000099071C8D424741E0E7002804D10120DF
:100920000021FFF743FE8046404600F005FB00280B
:1009300052D1414644460B043C1B1B0CA3460D0CF4
:1009400000930124291C5846FFF730FE009F814682
:100950004743291C5846FFF76DFE330C0904194321
:100960008F4208D94B464144013B884502D88F420B
:1009700000D91AE19946C91B8B46081C291CFFF7B0
:1009800015FE009B291C4343071C58460093FFF7A4
:1009900051FE3604009D0904360C0E43B54207D9BA
:1009A00046447B1EB04502D8023FB54200D81F1C0A
:1009B00049460E04374391E75246D243031C0C1CB0
:1009C000924600215842A1412CE7002746428F4120
:1009D000012149428A4620E720231B1A4246351C42
:1009E00082403C1CDD40DC4087402B1C150C3B4307
:1009F000291C8640201C009317049046FFF7D6FD63
:100A00003F0C011C794381468B46201C291CFFF7B3
:100A100011FE009C0904230C19438B450CD94B464D
:100A20004144013B884500D9BDE08B4500D8BAE080
:100A300002225242914441445C460C1B201C291C5A
:100A40000194FFF7B3FD391C4143041C8B46019808
:100A5000291CFFF7EFFD009A090413041B0C19432E
:100A60008B4509D94144631E884500D997E08B45E1
:100A700000D894E0023C41445B46CB1A49469B4671
:100A80000B041C4300975DE7009D20231B1A4A4678
:100A90008240DD401543391C009AD9408240884687
:100AA000311C0092D9403A1C82400B1C1343019325
:100AB0002F0C2B041B0C391C40460293FFF776FDCC
:100AC000029A81464243391C40469346FFF7B2FDE5
:100AD000019A0904130C19438B450AD94B4649194D
:100AE000013B8D425DD88B455BD902235B42994423
:100AF00049195A468A1A101C391C0392FFF756FDF1
:100B0000029B80464343391C03989B46FFF792FDA6
:100B1000019A090413041B0C19438B450AD9434657
:100B20004919013B8D4238D88B4536D902235B42A7
:100B3000984449195D464D1BAB464946009D0F043C
:100B4000424617432A04120C3B042D0C1B0C380C94
:100B5000111C594342436B436843D3180D0C5B1976
:100B60008C469A4202D98022520280181D0C4019EC
:100B700083450CD303D00024B0E61C1C89E66546EF
:100B80002A041B04120C9B18A6409E42F3D2013F7C
:100B90000024A3E600240127A0E69846CAE71C1C0F
:100BA0006AE79946A5E7994646E7022252429144F0
:100BB0004144E0E6F0B55F4656464D464446F0B443
:100BC0000D1C85B0061C9246984602900191039236
:100BD0001F1C141C8346A946002B59D1AA4269D96F
:100BE000101C00F0A9F900280AD020231B1A311C80
:100BF000D94085400B1C2B43864084409946B34620
:100C0000250C23041B0C291C48469846FFF7CEFCF4
:100C10004646071C4643291C4846FFF70BFD5A462B
:100C20000904130C19438E4209D909197B1E8C4201
:100C300000D957E18E4200D854E1023F0919891BBF
:100C40008946081C291CFFF7B1FC43464343061C98
:100C5000291C48469846FFF7EDFC5A461304090440
:100C60001B0C1943884508D90919731E8C4200D9F9
:100C700036E1023E884500D832E13804304300278F
:100C8000391C05B03CBC90469946A246AB46F0BD27
:100C9000019A934262D8181C00F04EF9041E60D1EC
:100CA000019B9F4200D22CE1029F03998F42604139
:100CB0000027E5E7002A04D101200021FFF776FC98
:100CC000041C201C00F038F9002800D0B9E02304EF
:100CD0002D1B1B0CA946260C98460127311C4846A3
:100CE000FFF764FC41464143051C8A464846311CD7
:100CF000FFF7A0FC5A460804130C1843824507D995
:100D000000196B1E844202D8824500D910E11D1CD7
:100D10005346C31A181C311C9A46FFF747FC41463C
:100D20004143814688465046311CFFF783FC5A46B2
:100D3000130409041B0C194388450BD94B460919A8
:100D4000013B8C4200D9CFE0884500D8CCE002239B
:100D50005B42994428044946084391E70027002054
:100D60008EE720231B1A424657468240DF40174336
:100D7000524682400192321CDA40291CD9408540FB
:100D8000131C2B4302933D0C3B041B0C8846081C90
:100D9000291C9A46FFF70AFC534643438146291C07
:100DA00040469B46FFF746FC029A0904130C194380
:100DB0008B4506D94B46C919013B8F4200D8ABE0A1
:100DC00099465A468A1A101C291C9346FFF7EEFBD7
:100DD00053464343291C804658469A46FFF72AFC4F
:100DE000029A090415042D0C29438A4506D9434665
:100DF000C919013B8F4200D886E098465746CF1B61
:100E0000BA464946019F0804424610433D042D0C52
:100E100003043F0C1B0C020C291C594355437B4314
:100E20007A43EB180F0CDB198C469D4202D98027C0
:100E30007F02D2191D0C521992455FD356D000275C
:100E40001EE720231B1A311C2F1CD940DF40854090
:100E50000B1C84402B4386400193B3462304260C8D
:100E60001B0C381C311C9846FFF7A0FB424642433E
:100E7000051C311C381C9146FFF7DCFB019F09045F
:100E80003B0C1943894507D909196B1E8C424DD873
:100E900089454BD9023D09194A468A1A101C311C52
:100EA0009246FFF783FB43464343071C311C5046E1
:100EB0009946FFF7BFFB019A090413041B0C194361
:100EC000894507D909197B1E8C422DD889452BD914
:100ED000023F09194B46CB1A2D0499462F43FDE6D4
:100EE0001E1CCAE61F1CAAE6994633E761460A049F
:100EF0001B04120C9B18A6409E42A0D2013800276A
:100F0000BEE600270120BBE68A4500D875E702232C
:100F10005B429844C91971E78B4500D850E702231A
:100F20005B429944C9194CE71F1CD3E71D1CB3E76A
:100F3000023D0019ECE6C0461C2101231B04984227
:100F400001D3000C10391B0A984201D3000A08395A
:100F50001B09984201D30009043902A2105C401811
:100F60007047C046040302020101010100000000B5
:100F70000000000090B587B002AFF860B9607A60F9
:100F80003B6005483968FA68BB687C68009400F0EB
:100F900005F800BEFDE7C046D07300000FB480B571
:100FA000A4B000AF00238C22D21913600023882242
:100FB000D21913603B1D1A1C8023101C00211A1C1F
:100FC00006F0F5F93B1C9C338422D2191360982358
:100FD000DB1918688422D21911683A1D0E4B00F0F3
:100FE0005BF9031C8C22D21913608C22D21913686E
:100FF0003A1D101C191C00F077F8031C8822D21926
:1010000013608822D2191368181CBD4624B080BC16
:1010100008BC04B01847C0461D10000080B586B05B
:1010200000AFF860B9603B60FB1D1A7000237B6164
:1010300000237B611DE0BB681B6801337F2B09D94E
:10104000BB681B68FA68101C191C00F04DF8BB68DF
:1010500000221A60BB681B68FA68D318FA1D127860
:101060001A70BB681B685A1CBB681A607B69013325
:101070007B617A693B689A42DDDBBD4606B080BD84
:1010800080B586B000AFF860B960FB1D1A70002310
:101090007B61144B1B79012B01D0062B19D1FB1D51
:1010A0001B78002B09D00F4B1968FA68BB68081C25
:1010B000111C1A1C05F0C0FD0EE00A4B1968FA68F5
:1010C000BB68081C111C1A1C05F0D4FD031C7B61B5
:1010D00002E001237B61C0467B69181CBD4606B057
:1010E00080BDC0461CF1FF1F80B582B000AF7860A4
:1010F00039607B68002B07D109484023191CFF3158
:10110000084A094BFFF736FF7A683B68101C191C28
:1011100000F00CF8031C181CBD4602B080BDC04690
:1011200010740000007700002874000080B584B0BF
:1011300000AF786039603B1C0F3300221A703B68A7
:10114000002B17D07B68002B14D03B1C0F330122DF
:101150001A703B1C0F331B78002B0BD07A683B684E
:10116000101C191C0122FFF78BFF031C002B01D060
:1011700000233B603B68181CBD4604B080BDC046E0
:1011800080B58CB000AFF860B9607A603B60002336
:10119000FB61FB68BB61BB695A1CBA6100221A7013
:1011A0007B68002B36D0BB681B68FB62FB6A002B98
:1011B00007D1BB6930221A70FB690133FB61FB69FF
:1011C00066E023E0F86A3968FFF73EFA031C7B61AA
:1011D0007B693A685343FA6AD31ABB62BB6A002B35
:1011E00006DABB6A3B623B6A3022D31ABB6202E07A
:1011F000BB6A3033BB627B69FB62BB695A1CBA6154
:10120000BA6AD2B21A70FB690133FB61FB6A002B28
:10121000D8D13CE0BB681B687B627B6A002B07D19E
:10122000BB6930221A70FB690133FB61FB692FE057
:101230002AE03B68786A191CFFF7B8F9031C3B6188
:101240003B683A6953437A6AD31A3B623B6A092B7B
:1012500003D83B6A30333B620BE03B1C38331B78CE
:10126000002B01D0412300E061233A6A9B180A3B1E
:101270003B623B697B62BB695A1CBA613A6AD2B273
:101280001A70FB690133FB617B6A002BD1D1FB69CA
:10129000181CBD460CB080BD90B59DB002AFF86083
:1012A000B9607A603B6000233B660023FB65002346
:1012B000BB613B1C4A3300221A7000233B61FB6870
:1012C0007B6698E17B6C252B0CD07B6CDBB279685C
:1012D0003A1C18325BB23C68081C111C1A1C012312
:1012E000A04785E13B1C4B3301221A7000237B652C
:1012F0000023BB651CE07B6E01337B667B6E1B7835
:101300005BB27B647B6C2F2B0DDD7B6C392B0ADC95
:101310007A6D131C9B009B185B001A1C7B6CD31806
:10132000303B7B6504E07B6E013B7B660123BB6544
:10133000BB6D002BDFD006233B657B6E01337B66E4
:101340007B6E1B785BB22E2B25D100233B650023DF
:10135000BB651CE07B6E01337B667B6E1B785BB2EA
:101360007B647B6C2F2B0DDD7B6C392B0ADC3A6D9B
:10137000131C9B009B185B001A1C7B6CD318303B22
:101380003B6504E07B6E013B7B660123BB65BB6D67
:10139000002BDFD002E07B6E013B7B667B6E01336E
:1013A0007B667B6E1B785BB27B647B6C642B1BD093
:1013B0007B6C692B18D07B6C662B15D07B6C462B15
:1013C00012D07B6C782B0FD07B6C582B0CD07B6CA5
:1013D0006F2B09D07B6C622B06D07B6C702B03D0FB
:1013E0007B6C752B00D0B0E07B6C642B02D07B6CE7
:1013F000692B19D1BB681A1DBA601B687B613A1C46
:101400001C323B1C1433391C4B3109780091101CE1
:10141000191C01220A23FFF7B3FE031CFB653A1CCB
:101420001C32FB6DD3183B667B6C582B02D07B6C57
:10143000782B20D17B6C782B03D13B1C4B330022C3
:101440001A70BB681A1DBA601B683B613A1C1C32DB
:101450003B1C1033391C4B3109780091101C191CAE
:1014600000221023FFF78CFE031CFB653A1C1C3284
:10147000FB6DD3183B667B6C6F2B08D07B6C622BAB
:1014800005D07B6C702B02D07B6C752B3BD1BB687D
:101490001A1DBA601B683B617B6C6F2B08D002DCA5
:1014A000622B0AD018E0702B0CD0752B0FD013E0F4
:1014B0003B1C4A3308221A700EE03B1C4A330222BE
:1014C0001A7009E03B1C4A3310221A7004E03B1CDE
:1014D0004A330A221A70C0463B1C4A331B78391C17
:1014E0001C313A1C1032381C4B3000780090081C1C
:1014F000111C0022FFF744FE031CFB653A1C1C3242
:10150000FB6DD3183B66FB6D7A6DD31A79683A1C74
:1015100018323C68081C111C2022A0473B6E002B8F
:1015200012D00DE03B6E5A1E3A661B7879683A1C61
:1015300018325BB23C68081C111C1A1C0123A0471E
:101540003B6E1B78002BEDD152E07B6C632B13D1EB
:10155000BB681A1DBA601B68DBB25BB23B643B6CB4
:10156000DBB279683A1C18325BB23C68081C111C6B
:101570001A1C0123A0473BE07B6C732B2CD1BB686A
:101580001A1DBA601B68FB64FB6C002B30D0FB6C2F
:10159000181C05F014FF031CFB65FB6D7A6DD31A54
:1015A00079683A1C18323C68081C111C2022A0479C
:1015B0000DE0FB6C5A1CFA641B7879683A1C1832EF
:1015C0005BB23C68081C111C1A1C0123A047FB6C71
:1015D0001B78002BEDD10BE07B6CDBB279683A1CF9
:1015E00018325BB23C68081C111C1A1C0123A0476E
:1015F0007B6E01337B667B6E1B785BB27B647B6C9E
:10160000002B00D05EE6BB69181CBD461BB090BD28
:1016100080B582B000AF786005F044FC05F062FC54
:10162000002003F09FF8FBE780B582B002AF05F021
:10163000DBFB084A084B0421009100210191101C9A
:10164000191C5A22002302F02BFF03F0E5F8C046D4
:10165000FDE7C046111600004074000080B584B05C
:1016600000AF78600A1CBB1C1A803B1C0F33FF22A2
:101670001A703B1C0E33FF221A701BE07B685A1C49
:101680007A601A783B1C0E331B785340DBB2BB6088
:10169000144ABB68D31819783B1C0E333A1C0F321E
:1016A00012784A401A703B1C0F330F49BA688A18E7
:1016B00012781A70BB1C1B88BA1C591E1180002B93
:1016C000DCD13B1C0F331B781B029AB23B1C0E3340
:1016D0001B789BB213439BB29BB2181CBD4604B04F
:1016E00080BDC0460C7700000C78000080B584B047
:1016F00000AF3A601A1CFB1D1870BB1D19707B1DD2
:101700001A703B1C0F3300221A7000F069FABB1DDF
:1017100019783A687B1D1B78081C111C082200F000
:10172000A5FA031C012B04D03B1C0F3303221A70B3
:101730001BE03A689623DB019A4202D92323BB605F
:1017400007E03B685B000D48191CFEF72FFF031CE8
:10175000BB60BB689BB2181C00F0FAFA031C012B9B
:1017600003D03B1C0F3303221A7000F03FFA3B1CDE
:101770000F331B78181CBD4604B080BDA07F170036
:1017800080B500AF00F02CFA064B00221A70012041
:10179000002100F03BFA00F0FBFA00F027FABD460A
:1017A00080BDC04625F1FF1F80B500AF00F018FADC
:1017B0000020002100F02AFA00F0F0FA00F016FAFA
:1017C000BD4680BD80B586B000AFF860B9607A6074
:1017D0003B1C163300221A703B1C173300221A7070
:1017E00000F0FEF9184B1B889BB2032B1ED9164B39
:1017F0001B889BB2154A101C191CFFF72FFF031CF6
:10180000002B13D1114B1B78DAB2FB681A700E4B08
:101810001B889BB2033B9AB27B681A80BB680C4A58
:101820001A603B1C163301221A7003E03B1C17336D
:1018300005221A7000F0DAF93B1C17331B78181CCC
:10184000BD4606B080BDC0462EF1FF1F081C00201B
:10185000091C002090B585B000AF3960FB1D011C4C
:1018600019703B1D1A803B1C0F3300221A7000F0C8
:10187000B7F92C4B1B78DBB2012B45D13B685A1EC4
:10188000294B1A60294B01221A80274B1B68FA1D2D
:1018900012781A70254B1B889AB23B1D1B88D318EF
:1018A0009AB2224B1A80204B1A68204B1B889BB29D
:1018B0003C1C0C34101C191CFFF7D0FE031C2380A9
:1018C0001A4B1B889BB25A1C91B2184A11803A1CC1
:1018D0000C321288D1B2164AD154144B1B889BB2D9
:1018E0005A1C91B2114A11803A1C0C321288120A09
:1018F00092B2D1B20E4AD1540E4B01221A7000207E
:10190000012100F083F903E03B1C0F3305221A701C
:1019100000F06CF93B1C0F331B78181CBD4605B05A
:1019200090BDC04625F1FF1F28F1FF1F2CF1FF1FBE
:10193000081C002024F1FF1F80B582B000AFFB1D02
:1019400000221A70BB1D181C00F0CEF9224B1B7828
:10195000DBB2012B0ED002DC002B05D035E0022BD0
:101960001CD0032B03D030E000F012FA2DE000F081
:101970000FFA2AE0194B00221A80184B1B889BB2E1
:101980005A1C91B2154A1180BA1D1178144AD154CB
:10199000114B02221A7000F0FBF916E00F4B1B8866
:1019A0009BB2FF2B0BD80D4B1B889BB25A1C91B2DC
:1019B0000A4A1180BA1D1178094AD15402E0064B37
:1019C00003221A7000F0E4F9C046FB1D1B785BB2DD
:1019D000181CBD4602B080BD25F1FF1F2EF1FF1F70
:1019E000081C002090B583B000AFFB1D00221A70C8
:1019F0001E4B1B78DBB2002B02D0012B05D02DE053
:101A00000120002100F002F928E0194B1B889BB24D
:101A1000002B15D0174B1B681B78DBB2DBB25BB217
:101A2000181C00F04FF9134B1B685A1C114B1A601D
:101A30000F4B1B889BB2013B9AB20D4B1A800CE0F6
:101A4000FC1D032000F074F8031C2370012000210A
:101A500000F0DCF8054B00221A70C046FB1D1B7815
:101A60005BB2181CBD4603B090BDC04624F1FF1FF9
:101A70002CF1FF1F28F1FF1F90B583B000AFFB1DB5
:101A800000221A70114B1B78DBB2022B0AD0032BF9
:101A90000FD0002B0ED1FC1D002000F049F8031CD4
:101AA000237007E0FC1D012000F042F8031C2370A6
:101AB00000E0C04600F072F9044B01221A70FB1DD1
:101AC0001B785BB2181CBD4603B090BD25F1FF1F0B
:101AD00080B582B000AFFB1D00221A7001200121E9
:101AE000002202F091F8021C074B1A60064B1B689B
:101AF000002B02D0FB1D01221A70FB1D1B785BB26C
:101B0000181CBD4602B080BD30F1FF1F80B500AF8C
:101B1000064B1B68002B07D0044B1B68181C02F0F7
:101B2000FFFA024B00221A60BD4680BD30F1FF1F54
:101B300080B584B000AF021CFB1D1A703B1C0F3334
:101B400001221A7000F042F8031C002B09D00D4B43
:101B50001A68FB1D101C191C0022002302F07CF9DE
:101B600008E0084B1A68FB1D101C191C00220023FA
:101B700002F0A2F83B1C0F331B785BB2181CBD4669
:101B800004B080BD30F1FF1F80B584B000AF786035
:101B90003B1C0F3300221A700B4B1A687B68101C19
:101BA000191CFA22002302F0CDF9031C012B03D1EA
:101BB0003B1C0F3301221A703B1C0F331B785BB2A6
:101BC000181CBD4604B080BD30F1FF1F80B500AFCA
:101BD000024B1B785BB2181CBD4680BD34F1FF1F61
:101BE00080B500AF04F014F8BD4680BD80B500AFED
:101BF00004F01EF8BD4680BD80B500AF00F05EF871
:101C000000F0C2F8FFF782FFBD4680BD80B582B00C
:101C100000AF0A1CFB1D011C1970BB1D1A70FB1DB7
:101C20001B785BB2002B05D00E4B01221A7001F01D
:101C3000DBFC04E00B4B00221A7001F0E3FCBB1D3F
:101C40001B785BB2002B05D0074B01221A7001F004
:101C5000E7FC04E0044B00221A7001F0EFFCBD46E3
:101C600002B080BD36F1FF1F35F1FF1F80B584B093
:101C700000AF3960111C1A1CFB1D1870BB1D1970B8
:101C80007B1D1A703B1C0F3300221A703B68181C16
:101C900001F072FC084B181C01F01CFD01F09CFCCB
:101CA0003B1C0F3301221A703B1C0F331B785BB2B5
:101CB000181CBD4604B080BD091D000080B500AFF2
:101CC000BD4680BD80B582B000AF021CFB1D1A70FE
:101CD000FB1D1B785BB2181C01F0BEFC01235BB23C
:101CE000181CBD4602B080BD80B582B000AF7860E0
:101CF00001F0D0FC031CDAB27B681A7001235BB2DE
:101D0000181CBD4602B080BD80B500AF0C4B1B78DF
:101D1000002B07D001F0FCFC031C002B02D0094B68
:101D20001B689847084B1B78002B07D001F0E2FC9A
:101D3000031C002B02D0054B1B689847BD4680BD95
:101D400035F1FF1F081D002036F1FF1F101D002078
:101D500080B582B000AF021CBB1D1A80BB1D1A8863
:101D6000131CDB009B1ADA00D31A181C01F0C8FD03
:101D7000044B181C01F00CFE01235BB2181CBD467D
:101D800002B080BDBD1D000080B500AFBD4680BD66
:101D900080B500AF01F00CFEBD4680BD80B500AF40
:101DA00001F012FEBD4680BD80B582B000AF021CBE
:101DB000BB1D1A80BD4602B080BDC04680B500AFD5
:101DC000024B1B689847BD4680BDC0460C1D0020D5
:101DD00090B587B000AF786039603B1C16330022A5
:101DE0001A703B681B88052B00D09FE07B6801338D
:101DF0001B781A1C3B1C143312021A807B680233B6
:101E00001B78191C3B1C14333A1C143212880A43E9
:101E10001A803B1C14331A883B1C143301321A807D
:101E20007B6803331B781A1C3B1C123312021A8086
:101E30007B6804331B78191C3B1C12333A1C12328A
:101E400012880A431A803B1C12331B88002B67D070
:101E50003B1C12331A883B4B9A4261D87B68FB606B
:101E60003B6800221A80FB685A1CFA6001221A7033
:101E70003B681B8801339AB23B681A803B1C1233C3
:101E80001A88072313400AD03B1C12331B88DB0837
:101E90009BB2DAB23B1C173301321A7007E03B1CCD
:101EA00012331B88DB089AB23B1C17331A70FB688D
:101EB0005A1CFA603A1C173212781A703B681B8859
:101EC00001339AB23B681A803C1C0B34F9683B1C06
:101ED00014331A883B1C12331B88081C111C1A1C53
:101EE000002305F003F9031C23703B1C0B331B7804
:101EF000002B0AD03C1C16343B1C0B331B78181CDF
:101F000000F020FE031C23700FE03B681A883B1C86
:101F100017331B789BB2D3189AB23B681A8004E03F
:101F20003B1C163303221A7004E003E03B1C1633FB
:101F300003221A703B1C16331B78181CBD4607B0D1
:101F400090BDC046CF07000090B585B000AF786067
:101F500039603B1C0F3300221A703B681B88052B2D
:101F600060D17B6801331B781A1C3B1C0C331202B6
:101F70001A807B6802331B78191C3B1C0C333A1CFB
:101F80000C3212880A431A803B1C0C331A883B1C03
:101F90000C3301321A807B6804331B78002B3BD151
:101FA0007B6803331B78FF2B04D07B6803331B78DB
:101FB000002B31D13B1C083300225A707B6803335D
:101FC0001B78FF2B04D13B1C083301221A7003E05D
:101FD0003B1C083300221A703C1C0B343A1C08329C
:101FE0003B1C0C331B88101C191C0122012305F01B
:101FF0007DF8031C23703B1C0B331B78002B0AD08D
:102000003C1C0F343B1C0B331B78181C00F09AFD52
:10201000031C237005E004E03B1C0F3303221A70FD
:1020200004E003E03B1C0F3303221A703B1C0F3308
:102030001B78181CBD4605B090BDC04690B585B054
:1020400000AF786039603B1C0E3300221A703B6889
:102050001B88052B00D88AE07B6801331B781A1C8B
:102060003B1C0C3312021A807B6802331B78191C4C
:102070003B1C0C333A1C0C3212880A431A803B1C5E
:102080000C331A883B1C0C3301321A807B680333F3
:102090001B781A1C3B1C0A3312021A807B6804331B
:1020A0001B78191C3B1C0A333A1C0A3212880A435B
:1020B0001A803B1C09337A6852791A703B1C0A3328
:1020C0001A88072313400AD03B1C0A331B88DB08FD
:1020D0009BB2DAB23B1C0F3301321A7007E03B1C93
:1020E0000A331B88DB089AB23B1C0F331A703B1C67
:1020F0000A331B88002B34D03B1C0A331A88F62382
:10210000DB009A422DD83A1C0F323B1C093312785F
:102110001B789A4225D17B68991D3C1C08343B1CD6
:102120000C331A883B1C0A331B88081C111C1A1C10
:10213000012304F0DBFF031C23703B1C08331B78D6
:10214000002B0AD03C1C0E343B1C08331B78181C97
:1021500000F0F8FC031C237008E03B6805221A809D
:1021600004E03B1C0E3303221A7004E003E03B1C26
:102170000E3303221A703B1C0E331B78181CBD460D
:1021800005B090BD90B587B000AF786039603B1C5A
:10219000163300221A703B681B88052B00D09EE086
:1021A0007B6801331B781A1C3B1C143312021A8003
:1021B0007B6802331B78191C3B1C14333A1C143205
:1021C00012880A431A803B1C14331A883B1C1433B0
:1021D00001321A807B6803331B781A1C3B1C1233B4
:1021E00012021A807B6804331B78191C3B1C1233C3
:1021F0003A1C123212880A431A803B1C12331B8885
:10220000002B66D03B1C12331A883A4B9A4260D896
:102210007B68FB603B6800221A80FB685A1CFA60EE
:1022200002221A703B681B8801339AB23B681A80FD
:102230003B1C12331A88072313400AD03B1C12336D
:102240001B88DB089BB2DAB23B1C173301321A70D1
:1022500007E03B1C12331B88DB089AB23B1C173388
:102260001A70FB685A1CFA603A1C173212781A70FE
:102270003B681B8801339AB23B681A803C1C0B34C4
:10228000F9683B1C14331A883B1C12331B88081C4A
:10229000111C1A1C04F0C8FF031C23703B1C0B33D9
:1022A0001B78002B0AD03C1C16343B1C0B331B78CC
:1022B000181C00F047FC031C23700FE03B681A88D1
:1022C0003B1C17331B789BB2D3189AB23B681A8019
:1022D00004E03B1C163303221A7004E003E03B1CAD
:1022E000163303221A703B1C16331B78181CBD468C
:1022F00007B090BDCF07000090B585B000AF786003
:1023000039603B1C0F3300221A703B681B88052B79
:1023100038D17B6801331B781A1C3B1C0C3312022A
:102320001A807B6802331B78191C3B1C0C333A1C47
:102330000C3212880A431A803B1C0C331A883B1C4F
:102340000C3301321A807B68DA1C3C1C0B343B1CBA
:102350000C331B88101C191C0122012304F036FECB
:10236000031C23703B1C0B331B78002B0ED03C1C32
:102370000F343B1C0B331B78181C00F0E3FB031CD1
:10238000237003E03B1C0F3303221A703B1C0F33F6
:102390001B78181CBD4605B090BDC04690B585B0F1
:1023A00000AF786039603B1C0F3300221A703B6825
:1023B0001B88052B00D872E07B6801331B781A1C40
:1023C0003B1C0C3312021A807B6802331B78191CE9
:1023D0003B1C0C333A1C0C3212880A431A803B1CFB
:1023E0000C331A883B1C0C3301321A807B68033390
:1023F0001B781A1C3B1C0A3312021A807B680433B8
:102400001B78191C3B1C0A333A1C0A3212880A43F7
:102410001A803B1C09337A6852791A703B1C0A33C4
:102420001B88002B35D03B1C0A331B88782B30D8F7
:102430003B1C0A331B88DBB2DB18DBB23A1C0932C7
:1024400012789A4225D17B68991D3C1C08343B1CAC
:102450000C331A883B1C0A331B88081C111C1A1CDD
:10246000012304F0B3FD031C23703B1C08331B78CD
:10247000002B0AD03C1C0F343B1C08331B78181C63
:1024800000F060FB031C237008E03B6805221A8003
:1024900004E03B1C0F3303221A7004E003E03B1CF2
:1024A0000F3303221A703B1C0F331B78181CBD46D8
:1024B00005B090BD90B587B000AF786039603B1C27
:1024C000173300221A703B681B88052B00D084E06C
:1024D0007B6801331B781A1C3B1C143312021A80D0
:1024E0007B6802331B78191C3B1C14333A1C1432D2
:1024F00012880A431A803B1C14331A883B1C14337D
:1025000001321A807B6803331B781A1C3B1C123380
:1025100012021A807B6804331A783B1C12331A802B
:102520003B1C12331B88002B51D03B1C12331B88E1
:102530007D2B4CD87B68FB603B6800221A80FB68CF
:102540005A1CFA6003221A703B681B8801339AB246
:102550003B681A80FB685A1CFA603A1C12321288D7
:10256000D2B29218D2B21A703B681B8801339AB269
:102570003B681A803C1C0B34F9683B1C14331A88E6
:102580003B1C12331B88081C111C1A1C002304F06E
:102590001DFD031C23703B1C0B331B78002B0AD042
:1025A0003C1C17343B1C0B331B78181C00F0CAFA78
:1025B000031C237010E03B681A883B1C12331B88F5
:1025C000DB189BB2D3189AB23B681A8004E03B1C1C
:1025D000173303221A7004E003E03B1C1733032275
:1025E0001A703B1C17331B78181CBD4607B090BDF2
:1025F00090B587B000AF786039603B1C173300227C
:102600001A703B681B88092B00D8EDE07B6801330A
:102610001B781A1C3B1C143312021A807B6802338D
:102620001B78191C3B1C14333A1C143212880A43C1
:102630001A803B1C14331A883B1C143301321A8055
:102640007B6803331B781A1C3B1C123312021A805E
:102650007B6804331B78191C3B1C12333A1C123262
:1026600012880A431A807B6805331B781A1C3B1CAE
:10267000103312021A807B6806331B78191C3B1C2E
:1026800010333A1C103212880A431A803B1C103354
:102690001A883B1C103301321A807B6807331B7881
:1026A0001A1C3B1C0E3312021A807B6808331B78FD
:1026B000191C3B1C0E333A1C0E3212880A431A8036
:1026C0003B1C0D337A68527A1A703B1C12331B88FC
:1026D000002B00D184E03B1C12331B887D2B00D9DA
:1026E0007EE03B1C0E331B88002B00D178E03B1CA6
:1026F0000E331B88792B00D972E03B1C0E331B88EC
:102700005A003B1C0D331B789A4269D17B68191C17
:102710000A313C1C16343B1C10331A883B1C0E3308
:102720001B88081C111C1A1C012304F04FFC031CFD
:1027300023703B1C16331B78002B40D17B68BB6099
:102740003B6800221A80BB685A1CBA6017221A70B4
:102750003B681B8801339AB23B681A80BB685A1CDD
:10276000BA603A1C12321288D2B29218D2B21A70DF
:102770003B681B8801339AB23B681A803C1C1634B4
:10278000B9683B1C14331A883B1C12331B88081C85
:10279000111C1A1C002304F019FC031C23703B1CA1
:1027A00016331B78002B0AD13B681A883B1C123366
:1027B0001B88DB189BB2D3189AB23B681A803B1C6B
:1027C00016331B78002B0AD03C1C17343B1C1633E5
:1027D0001B78181C00F0B6F9031C237004E003E01A
:1027E0003B1C173303221A703B1C17331B78181C31
:1027F000BD4607B090BDC04690B587B000AF7860C9
:1028000039603B1C173300221A703B681B88052B6C
:1028100000D088E07B6801331B781A1C3B1C143302
:1028200012021A807B6802331B78191C3B1C14337C
:102830003A1C143212880A431A803B1C14331A883B
:102840003B1C143301321A807B6803331B781A1C3B
:102850003B1C123312021A807B6804331B78191C4C
:102860003B1C12333A1C123212880A431A803B1C5A
:1028700012331B88002B50D03B1C12331B887C2B3F
:102880004BD87B68FB603B6800221A80FB685A1CAF
:10289000FA6004221A703B681B8801339AB23B68C5
:1028A0001A80FB685A1CFA603A1C12321288D2B2A3
:1028B0009218D2B21A703B681B8801339AB23B68F7
:1028C0001A803C1C0B34F9683B1C14331A883B1CDF
:1028D00012331B88081C111C1A1C04F023FB031C58
:1028E00023703B1C0B331B78002B0AD03C1C173485
:1028F0003B1C0B331B78181C00F024F9031C2370BD
:1029000010E03B681A883B1C12331B88DB189BB213
:10291000D3189AB23B681A8004E03B1C1733032299
:102920001A7004E003E03B1C173303221A703B1CAF
:1029300017331B78181CBD4607B090BD80B582B018
:1029400000AF786039607B68591C094B1B88094AC5
:10295000081C111C1A1C04F021FD054B1B880133B7
:102960009AB23B681A800023181CBD4602B080BD95
:1029700058F1FF1F38F1FF1F80B586B000AF7860B7
:10298000081C111C1A1CBB1C18807B1C19703B1CDA
:102990001A703B1C16333A1C12781A803B1C1433F5
:1029A000BA1C1288D2081A803B1C14331B88DB0027
:1029B0009AB23B1C1233B91C09888A1A1A803B1C34
:1029C00016331A883B1C12331B889A403B1C163363
:1029D0001A807B1C1B780122111C99400B1C9AB297
:1029E0003B1C1033013A1A803B1C10331A88BB1C65
:1029F00019883B1C14331B88DB00CB1A9A403B1C04
:102A000010331A803B1C14331B887A68D3181A7849
:102A10003B1C0E331A803B1C14331B8801337A682D
:102A2000D3181B781B029AB23B1C0E331B8813432E
:102A30009AB23B1C0E331A803B1C10331B88DB43BD
:102A40009BB23A1C0E32128813409AB23B1C1633CA
:102A50001B8813439AB23B1C0E331A803B1C143361
:102A60001B887A68D3183A1C0E321288D2B21A70B8
:102A70003B1C14331B8801337A68D3183A1C0E327E
:102A80001288120A92B2D2B21A70BD4606B080BD48
:102A900080B584B000AF7860BB1C19807B1C1A70B5
:102AA0003B1C0E33BA1C1288D2081A803B1C0E3312
:102AB0001B88DB009AB23B1C0C33B91C09888A1AAC
:102AC0001A807B1C1B780122111C99400B1C9AB2A6
:102AD0003B1C0A33013A1A803B1C0E331B887A6870
:102AE000D3181A783B1C08331A803B1C0E331B8802
:102AF00001337A68D3181B781B029AB23B1C083347
:102B00001B8813439AB23B1C08331A803B1C0833C2
:102B10001A883B1C0C331B881A413B1C08331A8053
:102B20003B1C08333A1C0832391C0A3112880988C8
:102B30000A401A803B1C08331B88DBB2181CBD46B8
:102B400004B080BD80B584B000AF021CFB1D1A70BC
:102B5000FB1D1B78012B08D0072B0BD0002B0ED1AF
:102B60003B1C0F3300221A700EE03B1C0F33022275
:102B70001A7009E03B1C0F3306221A7004E03B1C5C
:102B80000F3304221A70C0463B1C0F331B78181CED
:102B9000BD4604B080BDC04680B584B000AF3A6089
:102BA0001A1CFB1D1870BB1D19707B1D1A703B1C75
:102BB0000F3300221A70FFF713F8144B0A221A7011
:102BC000BB1D19783A687B1D1B78081C111C072255
:102BD000FFF74CF8031C012B04D03B1C0F330322DE
:102BE0001A700AE00A4B181CFFF7B2F8031C012BFD
:102BF00003D03B1C0F3303221A70FEF7F7FF3B1C78
:102C00000F331B78181CBD4604B080BD66F1FF1F52
:102C1000204E000080B500AFFEF7E2FF012000214A
:102C2000FEF7F4FF044B00221A70FEF7DFFF0020CE
:102C3000FEF77EFFBD4680BD5BF1FF1F80B500AF94
:102C4000FEF7CEFF00200021FEF7E0FFFFF7A6F819
:102C5000FEF7CCFFBD4680BD80B586B000AFF86002
:102C6000B9607A603B1C173300221A70FEF7B8FF78
:102C7000184B1B889BB2022B1ED9174B1A68154B99
:102C80001B889BB2101C191C00F04CFA031C002B73
:102C900012D1114B1B681B78DAB2FB681A700D4B0E
:102CA0001B889BB2023B9AB27B681A800A4B1B6856
:102CB0005A1CBB681A6003E03B1C173305221A70CC
:102CC000FEF794FF3B1C17331B78181CBD4606B05B
:102CD00080BDC0465CF1FF1F00F0FF1F90B585B0BE
:102CE00000AF3960FB1D011C19703B1D1A803B1C95
:102CF0000F3300221A70FEF773FF254B1B78DBB2EF
:102D0000002B37D13B685A1E224B1A60224B0122FE
:102D10001A80204B1B68FA1D12781A701E4B1B88F4
:102D20009AB23B1D1B88D3189AB21B4B1A80194BC1
:102D30001A68194B1B889BB23C1C0E34101C191CC2
:102D400000F0F0F9031C2370144B1A68124B1B8817
:102D50009BB2591C88B210490880D3183A1C0E3215
:102D600012781A700E4B01221A7000200121FEF712
:102D70004DFF03E03B1C0F3305221A70FEF736FFB0
:102D80003B1C0F331B78181CBD4605B090BDC046D8
:102D90005BF1FF1F60F1FF1F64F1FF1F00F0FF1FD9
:102DA0005AF1FF1F90B583B000AFFB1D00221A70CF
:102DB0007B1D181CFEF798FF534B1B78DBB2012BD1
:102DC00005D0022B5FD0002B00D184E094E0FEF709
:102DD000DFFF7B1D1B783A2B06D14C4B00221A706B
:102DE0004B4B00221A804DE07B1D1B780D2B03D12D
:102DF000454B02221A7045E07B1D1B78BC1D181C38
:102E000000F048F9031C2370404B1B78DBB2002B09
:102E100002D0012B1AD06FE03D4B1B889BB2FF2BD9
:102E20000ED83C4B1A683A4B1B889BB2D318BA1D7C
:102E300012781201D2B21A70344B01221A7021E0BA
:102E4000314B00221A70FEF7A9FF1BE0314B1968C5
:102E50002F4B1B889BB21A1C89182E4A1268D31854
:102E60001B78DAB2BB1D1B781343DBB20B70284B07
:102E70001B889BB201339AB2254B1A80234B002248
:102E80001A70C04638E07B1D1A78234B1B78DBB2E2
:102E90009A420BD1FEF782FF1B4B00221A70FC1DD9
:102EA0000120FEF745FE031C237013E07B1D1B78F9
:102EB0003A2B0BD1154B00221A70154B00221A80A9
:102EC000114B01221A70FEF763FF03E00E4B002244
:102ED0001A7011E010E07B1D1B783A2B0BD1FEF726
:102EE00057FF0B4B00221A80084B00221A70064B2A
:102EF00001221A70FFE7C046FB1D1B785BB2181C4D
:102F0000BD4603B090BDC0465BF1FF1F5EF1FF1FE1
:102F10005CF1FF1F00F0FF1F66F1FF1F90B583B04B
:102F200000AFFB1D00221A70494B1B78DBB2042B4B
:102F300000D985E09A00474BD3181B689F46BB1DFC
:102F40003A221A70BB1D1B785BB2181CFEF7BAFE42
:102F50003F4B02221A70404B00221A7070E03F4B28
:102F60001B889BB2002B41D03B4B1B78DBB2002B64
:102F700002D0012B16D040E0394B1B681B78DBB226
:102F80001B09DBB2BC1D181C00F0AAF8031C23703F
:102F9000BB1D1B785BB2181CFEF794FE2E4B012262
:102FA0001A7022E02E4B1B681B78DAB20F231340F5
:102FB000DBB2BC1D181C00F093F8031C2370BB1D72
:102FC0001B785BB2181CFEF77DFE254B1B685A1C54
:102FD000234B1A60204B00221A70204B1B889BB297
:102FE000013B9AB21D4B1A80C04606E00D20FEF749
:102FF00069FE174B03221A7022E021E0194B1B785F
:10300000DBB2DBB25BB2181CFEF75CFE104B042295
:103010001A7015E00E4B00221A70FC1D0320FEF7FB
:1030200087FD031C237001200021FEF7EFFD084BF4
:1030300000221A7004E001200021FEF7E7FDC046DF
:10304000FB1D1B785BB2181CBD4603B090BDC0468B
:103050005AF1FF1F0C7900005EF1FF1F64F1FF1FA2
:1030600060F1FF1F66F1FF1F80B500AF084B1B78B2
:10307000DBB2013B012B03D8054B00221A7000E0A4
:10308000C046FEF78BFE00235BB2181CBD4680BD18
:103090005BF1FF1F80B582B000AF021CFB1D1A70F0
:1030A000FB1D1B782F2B08D9FB1D1B78392B04D84F
:1030B000FB1D1B78303BDBB20DE0FB1D1B78402B6A
:1030C00008D9FB1D1B78462B04D8FB1D1B78373B0A
:1030D000DBB200E0FF23181CBD4602B080BDC04635
:1030E00080B582B000AF021CFB1D1A70FB1D1B785F
:1030F000092B04D8FB1D1B783033DBB20DE0FB1D20
:103100001B78092B08D9FB1D1B780F2B04D8FB1D3E
:103110001B783733DBB200E03023181CBD4602B009
:1031200080BDC04680B584B000AF78600A1CBB1C6F
:103130001A803B1C0F3300221A700AE07B685A1C6D
:103140007A6019783B1C0F333A1C0F3212788A18B8
:103150001A70BB1C1B88BA1C591E1180002BEDD1A4
:103160003B1C0F333A1C0F32127852421A703B1C30
:103170000F331B78181CBD4604B080BD90B585B0D8
:1031800000AF3B60FB1D1870BB1D19707B1D1A70D2
:103190003B1C0F3300221A70BB1D1B78002B07D07D
:1031A000BB1D1B78002B03D0BB1D1B78F72B04D94C
:1031B0003B1C0F3302221A7072E03D4BBA1D12788D
:1031C0001A70FB1D1B78002B02D0012B27D04DE07D
:1031D000384B394A1A60394B394A1A60394B3A4AE6
:1031E0001A603A4B3A4A1A603A4B3B4A1A603B4BD8
:1031F0003B4A1A603B4B3C4A1A603C4B3C4A1A60C3
:103200002B4B18783C1C0F347B1D19783A683B1CFB
:1032100020331B78FEF76AFA031C23702AE0254B43
:10322000344A1A60254B344A1A60264B334A1A60D6
:10323000264B334A1A60274B274A1A60274B314ADC
:103240001A60284B304A1A60284B304A1A60184BD3
:1032500018783C1C0F347B1D19783A683B1C2033CE
:103260001B78FFF799FC031C237003E03B1C0F3312
:1032700002221A703B1C0F331B78002B10D1FEF773
:1032800027FC031C002B04D13B1C0F3303221A70B4
:1032900006E01F4BFA1D12781A701E4B01221A709D
:1032A0003B1C0F331B78181CBD4605B090BDC046B3
:1032B00067F1FF1F70F1FF1F8117000074F1FF1FFE
:1032C000A91700006CF1FF1F5518000078F1FF1FCF
:1032D000C51700007CF1FF1FF91B0000101D002026
:1032E00039190000081D0020E51900000C1D002000
:1032F000791A0000152C00003D2C0000DD2C000088
:10330000592C0000A52D00001D2F00006930000081
:1033100068F1FF1F04F0FF1F80B582B000AFFB1DF6
:1033200000221A70094B1B78012B06D1084B1B6831
:103330009847064B00221A7002E0FB1D06221A7005
:10334000FB1D1B78181CBD4602B080BD04F0FF1F9A
:1033500070F1FF1FB0B582B000AFFB1C00221A70E5
:10336000534B1B78002B01D006239DE0BB1C181C7F
:10337000FEF70AFC031C012B00D094E0BB1C1B7859
:10338000012B04D000DC8DE0022B1CD08BE0494BDC
:103390001B68FC1C48484949494A9847031C23704C
:1033A000FB1C1B78002B0DD1434B1A78454B1B7827
:1033B0009A4203D0404B1B78002B03D10220FEF72A
:1033C000B7FB70E06FE03D4B1B681A783E4B1A70FC
:1033D0003E4B01221A7000237B6021E03C4B7A684F
:1033E000D200D35C002B00D11DE0394B7A68D200AB
:1033F000D25C354B1B789A420FD1354A7B68DB0093
:10340000D3185A682D4B19682D4B081C191C90476E
:10341000031C1A1C2D4B1A7005E07B6801337B607E
:103420007B680F2BDADD244B1B78002B39D0274B20
:103430001B78002B1ED0224B00221A801F4B1A68CB
:103440001F4B1B88591C88B21D490880D3181E4A7F
:103450001278802149420A43D2B21A70174B1A6877
:10346000174B1B88591C88B215490880D318174A76
:1034700012781A70174B1B78012B02D10220FEF72D
:1034800093FC154B1D680F4B19780C4B1A680C4BAD
:103490001B88FC1C081C111C1A1CA847031C237049
:1034A00001E000E0C0460023181CBD4602B0B0BDDC
:1034B00004F0FF1F78F1FF1F80F1FF1F84F1FF1F51
:1034C00088F1FF1F67F1FF1F8AF1FF1F8BF1FF1FBC
:1034D00008F0FF1F68F1FF1F6CF1FF1F80B582B07D
:1034E00000AF021CFB1D1A70FB1D1B787F2B0AD836
:1034F000064BFA1D1278111C1F220A400121081CDC
:103500009040021C1A60BD4602B080BD00E100E0A0
:1035100080B582B000AF021CFB1D1A70FB1D1B782A
:103520005BB21A1C803201D1012306E0FB1D1B781F
:103530005BB2181CFFF7D2FF0023181CBD4602B077
:1035400080BDC04680B582B000AF78600A1CFB1C0D
:103550001A707B68FA1C1278DA71BD4602B080BD21
:1035600080B582B000AF78607B68DB79DBB2181C75
:10357000BD4602B080BDC04680B586B000AF786061
:10358000134B181C002103F03FF83B1C0C33181C94
:1035900003F0B4FA3B1C0C337A681A603B1C0C3302
:1035A0000122DA713B1C0C3301221A72022002F054
:1035B000D1FC031C07493A1C0C32081C111C1A1CB4
:1035C00003F086F900F010F8BD4606B080BDC04695
:1035D0002C00020000B0064080B500AF0D20FFF7C0
:1035E00097FFBD4680BDC04680B500AF044A80232A
:1035F0009B01101C191C03F0ADFABD4680BDC046EE
:1036000000B0064080B500AF044A80239B01101C27
:10361000191C03F0CBFABD4680BDC04600B0064081
:1036200080B500AF044A80231B02101C191C03F054
:1036300091FABD4680BDC04600B0064080B500AFDF
:10364000044A80231B02101C191C03F0AFFABD466C
:1036500080BDC04600B0064080B582B000AF021CFD
:10366000FB1D1A70C0460A4B181C03F0D1FA021C4D
:1036700080231340F7D0FB1D1B78054A101C191C32
:10368000FFF760FFFFF7CCFFBD4602B080BDC0462C
:1036900000B0064090B583B000AFFB1D00221A7049
:1036A000C0460B4B181C03F0B3FA021C80231340D6
:1036B000F7D0FC1D064B181CFFF752FF031C2370AC
:1036C000FFF792FFFB1D1B78181CBD4603B090BD91
:1036D00000B0064080B582B000AF78607B68002BF8
:1036E00002D0034B7A681A60BD4602B080BDC04666
:1036F0001C1D002080B500AF044B181C03F088FA95
:10370000021C20231340181CBD4680BD00B006409B
:1037100080B500AF044B181C03F07AFA021C40235A
:103720001340181CBD4680BD00B0064080B500AFF8
:10373000044B1B68002B02D0024B1B689847BD4608
:1037400080BDC0461C1D002080B582B000AF021CA9
:10375000FB1D1A70FB1D1B787F2B0AD8064BFA1D28
:103760001278111C1F220A400121081C9040021CE3
:103770001A60BD4602B080BD00E100E080B582B0B5
:1037800000AF021CFB1D1A70FB1D1B785BB21A1CDC
:10379000803201D1012306E0FB1D1B785BB2181CAF
:1037A000FFF7D2FF0023181CBD4602B080BDC04603
:1037B00080B582B000AF78607B68002B06D10649E7
:1037C000064A074B081C8521FDF7D4FB7B680022C5
:1037D0001A70BD4602B080BD4C7400002079000014
:1037E0006474000080B584B000AFF8607A603B1C60
:1037F0000B330A1C1A703B1C0B3319783B1C0B3320
:103800001A78F86884235B0012018218D3181A68AA
:103810007B681A43F86884235B0009014118CB18C0
:103820001A60BD4604B080BD80B584B000AFF860BA
:103830007A603B1C0B330A1C1A703B1C0B331A7842
:10384000F96884235B0012018A18D3187A685A60D9
:10385000BD4604B080BDC04680B584B000AFF860FE
:103860007A603B1C0B330A1C1A703B1C0B331A7812
:10387000FB68103212017968D150BD4604B080BD9A
:1038800080B582B000AF78600A1CFB1C1A70FB1C6C
:103890001978FB1C1A78786884235B00120182185F
:1038A000D3181B6801221A43786884235B0009013E
:1038B0004118CB181A60BD4602B080BD80B582B0F9
:1038C00000AF78600A1CFB1C1A70FB1C1978FB1CEB
:1038D0001A78786884235B0012018218D3181B6859
:1038E0000122181C9043021C786884235B000901A4
:1038F0004118CB181A60BD4602B080BD0000000020
:10390000B0B586B000AFF8603B1C1433181CFFF74D
:103910004FFF1D4A3B1C1433101C191C02F036FECD
:10392000FB683B6000237B60022002F013FB031C5A
:103930001C1C00231D1C38687968221C2B1CFCF7FA
:1039400005FF031C0C1C181C211C0E4B0C4AFCF719
:10395000DDFE031C0C1C0C4A101C00211A1CFFF776
:103960007BFF094B181C00210222FFF73BFF1620AA
:10397000FFF704FFBD4606B0B0BDC046C046C04616
:1039800040420F000000000000700340C046C046E7
:1039900080B582B000AF78607B68002B02D0034B0B
:1039A0007A681A60BD4602B080BDC046201D002066
:1039B00080B500AF034B181C0021FFF761FFBD4627
:1039C00080BDC0460070034080B500AF034B181C9B
:1039D0000021FFF773FFBD4680BDC0460070034065
:1039E00080B500AF074B1B68002B08D0064B181C96
:1039F00000210122FFF718FF024B1B689847BD46C4
:103A000080BDC046201D00200070034080B582B0FC
:103A100000AF78607B681A1C08327B685A607B684C
:103A2000012252429A607B681A1C08327B68DA6075
:103A30007B681A1C08327B681A617B6800221A6056
:103A4000BD4602B080BDC04680B582B000AF786090
:103A50007B6800221A61BD4602B080BD80B584B08B
:103A600000AF786039607B685B68FB603B68FA6830
:103A70005A60FB689A683B689A60FB689B683A6882
:103A80005A60FB683A689A603B687A681A617B689A
:103A90001B685A1C7B681A60BD4604B080BDC046D6
:103AA00080B584B000AF786039603B681B68BB604C
:103AB000BB68013303D17B681B69FB600CE07B684A
:103AC0000833FB6002E0FB685B68FB60FB685B68D7
:103AD0001A68BB689A42F6D9FB685A683B685A6014
:103AE0003B685B683A689A603B68FA689A60FB6872
:103AF0003A685A603B687A681A617B681B685A1C8E
:103B00007B681A60BD4604B080BDC04680B584B0F5
:103B100000AF78607B681B69FB607B685B687A68D4
:103B200092689A607B689B687A6852685A60FB6802
:103B30005A687B689A4203D17B689A68FB685A602E
:103B40007B6800221A61FB681B685A1EFB681A60BA
:103B5000FB681B68181CBD4604B080BD80B584B0EE
:103B600000AF786039607B68FB60FB68002B01D197
:103B700072B6FEE702F04CF8FB681A68FB68D96B76
:103B8000FB681B6C4B43D218FB685A60FB68002231
:103B90009A63FB681A68FB689A60FB681A68FB689E
:103BA000DB6B591EFB681B6C4B43D218FB68DA6059
:103BB000FA684423FF21D154FA684523FF21D154E8
:103BC0003B68002B0ED1FB681B69002B14D0FB68EF
:103BD0001033181C01F03CF8031C002B0CD002F031
:103BE00009F809E0FB681033181CFFF70FFFFB68AA
:103BF0002433181CFFF70AFF02F01AF80123181CDF
:103C0000BD4604B080BDC04690B58BB002AFF86031
:103C1000B960FB1D1A70FB68002B01D172B6FEE77C
:103C2000BB68002B02D10023FB6103E0FB68BA688C
:103C30005343FB61FB695033181C01F0BDFD031CAD
:103C4000BB61BB69002B0BD0BB6950337B61F8684B
:103C5000B9687A69FB1D1B78BC69009400F006F80E
:103C6000BB69181CBD4609B090BDC04680B584B084
:103C700000AFF860B9607A601A1CFB1C1A70BB6850
:103C8000002B03D1BB69BA691A6002E0BB697A688C
:103C90001A60BB69FA68DA63BB69BA681A64BB69FF
:103CA000181C0121FFF75AFFBA69F91C4C23097847
:103CB000D154BD4604B080BD80B58AB000AFF86075
:103CC000B9607A603B6000237B62FB683B623B6AC1
:103CD000002B01D172B6FEE7BB68002B03D13B6A13
:103CE0001B6C002B01D1012300E00023002B01D12C
:103CF00072B6FEE73B68022B03D13B6ADB6B012BFC
:103D000001D1012300E00023002B01D172B6FEE7B0
:103D100001F02AF9031C002B02D17B68002B01D192
:103D2000012300E00023002B01D172B6FEE701F071
:103D30006FFF3B6A9A6B3B6ADB6B9A4202D33B682C
:103D4000022B21D1396ABA683B68081C111C1A1C65
:103D500000F0FCF9031CFB613B6A5B6A002B0AD094
:103D60003B6A2433181C00F073FF031C002B07D0A0
:103D700001F040FF04E0FB69002B01D001F03AFFA5
:103D800001F056FF012363E07B68002B03D101F0B3
:103D90004FFF00235CE07B6A002B06D13B1C1433F1
:103DA000181C00F0B1FF01237B6201F041FF00F01D
:103DB00071FD01F02DFF3A6A4423D35CDBB25BB2A4
:103DC000013303D13A6A44230021D1543A6A45238E
:103DD000D35CDBB25BB2013303D13A6A45230021E5
:103DE000D15401F025FF3A1C14323B1D101C191C44
:103DF00000F0A2FF031C002B21D13B6A181C00F02D
:103E0000B3FA031C002B13D03B6A1A1C10327B68D8
:103E1000101C191C00F0DCFE3B6A181C00F02EFA86
:103E200000F044FD031C002B11D101F0E3FE0EE075
:103E30003B6A181C00F022FA00F038FD77E73B6A75
:103E4000181C00F01BFA00F031FD002300E06EE7C3
:103E5000181CBD460AB080BD80B588B000AFF860C0
:103E6000B9607A603B60FB68BB61BB69002B01D124
:103E700072B6FEE7BB68002B03D1BB691B6C002B3D
:103E800001D1012300E00023002B01D172B6FEE72F
:103E90003B68022B03D1BB69DB6B012B01D10123F2
:103EA00000E00023002B01D172B6FEE701F0D6FE40
:103EB000031C7B61BB699A6BBB69DB6B9A4202D3C3
:103EC0003B68022B32D13B1C1333B96945228A5C13
:103ED0001A70B969BA683B68081C111C1A1C00F0FA
:103EE00035F93B1C13331B785BB2013312D1BB692C
:103EF0005B6A002B17D0BB692433181C00F0A8FEA6
:103F0000031C002B0FD07B68002B0CD07B68012298
:103F10001A6008E03B1C13331B780133DBB2D9B2C3
:103F2000BA694523D1540123FB6101E00023FB6101
:103F30007B69181C01F098FEFB69181CBD4608B08F
:103F400080BDC04680B58AB000AFF860B9607A60C5
:103F50003B6000237B62FB683B623B6A002B01D124
:103F600072B6FEE7BB68002B03D13B6A1B6C002BCB
:103F700001D1012300E00023002B01D172B6FEE73E
:103F800000F0F2FF031C002B02D17B68002B01D153
:103F9000012300E00023002B01D172B6FEE701F0FF
:103FA00037FE3B6A9B6BFB61FB69002B3CD03B6A95
:103FB000DB68BB613A6ABB68101C191C00F036F95B
:103FC0003B68002B1BD1FB695A1E3B6A9A633B6A14
:103FD0001B68002B04D101F09DF8021C3B6A5A605B
:103FE0003B6A1B69002B1BD03B6A1033181C00F086
:103FF0002FFE031C002B13D001F0FCFD10E03B6AE8
:10400000BA69DA603B6A5B6A002B09D03B6A2433E9
:10401000181C00F01DFE031C002B01D001F0EAFD6E
:1040200001F006FE012377E07B68002B03D101F04D
:10403000FFFD002370E07B6A002B06D13B1C103390
:10404000181C00F061FE01237B6201F0F1FD00F01D
:1040500021FC01F0DDFD3A6A4423D35CDBB25BB2A4
:10406000013303D13A6A44230021D1543A6A4523EB
:10407000D35CDBB25BB2013303D13A6A4523002142
:10408000D15401F0D5FD3A1C10323B1D101C191CF7
:1040900000F052FE031C002B2ED13B6A181C00F0CE
:1040A0004DF9031C002B20D03B6A1B68002B08D164
:1040B00001F0AEFD3B6A5B68181C00F071FF01F077
:1040C000B7FD3B6A1A1C24327B68101C191C00F0D7
:1040D0007FFD3B6A181C00F0D1F800F0E7FB031CE1
:1040E000002B18D101F086FD15E03B6A181C00F08A
:1040F000C5F800F0DBFB52E73B6A181C00F0BEF885
:1041000000F0D4FB3B6A181C00F018F9031C002BCC
:1041100001D0002300E042E7181CBD460AB080BD74
:1041200080B584B000AF78607B68FB60FB68002BD3
:1041300001D172B6FEE7FB68181C00F053F9FB686A
:10414000181C01F0DFFBBD4604B080BD80B586B011
:1041500000AFF860B9607A6000237B61FB689B6BFD
:104160003B61FB681B6C002B0ED1FB681B68002BAE
:1041700052D1FB685B68181C00F070FF031C7B6168
:10418000FB6800225A6047E07B68002B1BD1FB686C
:104190009968FB681B6CBA68081C111C1A1C03F098
:1041A000FDF8FB689A68FB681B6CD218FB689A6084
:1041B000FB689A68FB685B689A422DD3FB681A68B3
:1041C000FB689A6028E0FB68D968FB681B6CBA68DA
:1041D000081C111C1A1C03F0E1F8FB68DA68FB6884
:1041E0001B6C5B42D218FB68DA60FB68DA68FB681C
:1041F0001B689A4207D2FB685A68FB681B6C5B42DB
:10420000D218FB68DA607B68022B05D13B69002B72
:1042100002D03B69013B3B613B695A1CFB689A63D6
:104220007B69181CBD4606B080BDC04680B582B013
:1042300000AF786039607B681B6C002B1AD07B68FC
:10424000DA687B681B6CD2187B68DA607B68DA6896
:104250007B685B689A4203D37B681A687B68DA6084
:104260007B68DA687B681B6C3968081C111C1A1C97
:1042700003F094F8BD4602B080BDC04680B584B05E
:1042800000AF786001F0C4FC3B1C0F337968452215
:104290008A5C1A7016E07B685B6A002B0AD07B6828
:1042A0002433181C00F0D4FC031C002B03D000F0B6
:1042B00091FD00E00CE03B1C0F333A1C0F321278EA
:1042C000013A1A703B1C0F331B785BB2002BE2DC07
:1042D0007A684523FF21D15401F0AAFC01F098FC33
:1042E0003B1C0E33796844228A5C1A7016E07B68A6
:1042F0001B69002B11D07B681033181C00F0A8FC40
:10430000031C002B01D000F065FD3B1C0E333A1C52
:104310000E321278013A1A7000E005E03B1C0E33B1
:104320001B785BB2002BE2DC7A684423FF21D15476
:1043300001F07EFCBD4604B080BDC04680B584B0AF
:1043400000AF786001F064FC7B689B6B002B02D1AE
:104350000123FB6001E00023FB6001F069FCFB68C6
:10436000181CBD4604B080BD80B584B000AF786035
:1043700001F04EFC7B689A6B7B68DB6B9A4202D142
:104380000123FB6001E00023FB6001F051FCFB68AE
:10439000181CBD4604B080BD80B584B000AF786005
:1043A00039600023FB6014E00D4BFA68D200D3584B
:1043B000002B0BD10A4BFA68D2003968D150084A59
:1043C000FB68DB00D3187A685A6005E0FB680133AC
:1043D000FB60FB68072BE7D9BD4604B080BDC04633
:1043E000241D002080B584B000AF78600023FB60FE
:1043F00016E00E4AFB68DB00D3185A687B689A42C5
:104400000BD10A4BFA68D2000021D150074AFB6851
:10441000DB00D31800225A6005E0FB680133FB6023
:10442000FB68072BE5D9BD4604B080BD241D0020E4
:1044300080B586B000AFF860B9607A60FB687B61D8
:1044400001F0E6FB7A694423D35CDBB25BB2013353
:1044500003D17A6944230021D1547A694523D35C7E
:10446000DBB25BB2013303D17A6945230021D15419
:1044700001F0DEFB7B699B6B002B09D17B69191C6A
:104480002431BA687B68081C111C1A1C00F0BCFBA4
:104490007B69181CFFF7F2FEBD4606B080BDC04622
:1044A00090B58DB004AFF860B9603B60BB1D1A8059
:1044B000BB1D1B889B00181C01F07EF9031C7B614F
:1044C0007B69002B10D0742001F076F9031CFB618E
:1044D000FB69002B03D0FB697A691A6306E07B69EC
:1044E000181C01F00FFA01E00023FB61FB69002BAF
:1044F00015D0BB1D1A88F868B9683B683C6B0094FE
:104500007C6B0194FC6902940024039400F010F881
:10451000FB69181C00F09CF80123BB6102E0012339
:104520005B42BB61BB69181CBD4609B090BDC0466B
:1045300080B586B000AFF860B9607A603B60BB6A56
:104540001A6B7B689B00101CA5211A1C02F02FFF20
:10455000BB6A1A6B7B683D495B189B00D3183B61B3
:104560003B69072293433B613A690723134001D01B
:1045700072B6FEE700237B6113E0BA687B69D3184B
:104580001A78B86A302379694118CB181A71BA6859
:104590007B69D3181B78002B00D105E07B690133C0
:1045A0007B617B69132BE8D9BA6A47230021D15478
:1045B0003B6A042B01D904233B62BB6A3A6ADA6284
:1045C000BB6A3A6A1A65BB6A00225A65BB6A043341
:1045D000181CFFF739FABB6A1833181CFFF734FAB6
:1045E000BB6ABA6A1A613B6A0522D21ABB6A9A612F
:1045F000BB6ABA6A5A6200237B6108E0BB6A7A69C7
:10460000163292000021D1507B6901337B617B69B6
:10461000042BF3D9BB6A0022DA66BA6A7023002140
:10462000D1543969FA683B68081C111C1A1C01F046
:1046300063FA021CBB6A1A607B6A002B02D07B6A99
:10464000BA6A1A60BD4606B080BDC046FFFFFF3F94
:1046500080B582B000AF786001F0DAFA294B1B68B0
:104660005A1C284B1A60284B1B68002B09D1264B7B
:104670007A681A60234B1B68012B10D100F0C4FB31
:104680000DE0224B1B68002B09D11F4B1B68DA6A17
:104690007B68DB6A9A4202D81B4B7A681A601C4B13
:1046A0001B685A1C1A4B1A60194B1A687B689A646B
:1046B0007B68DA6A174B1B689A4203D97B68DA6A0F
:1046C000144B1A607B68DA6A131C9B009B189B00D2
:1046D000114A9A187B680433101C191CFFF7BEF9A5
:1046E00001F0A6FA094B1B68002B08D0064B1B688B
:1046F000DA6A7B68DB6A9A4201D201F07BFABD4636
:1047000002B080BD64F2FF1F8CF1FF1F70F2FF1F2B
:1047100080F2FF1F6CF2FF1F90F1FF1F80B584B085
:1047200000AF78600023FB607B68002B10D00C4B3F
:104730001B68002B01D072B6FEE700F0ABF87B6877
:10474000181C002100F0F8FC00F0B0F8031CFB601E
:10475000FB68002B01D101F04DFABD4604B080BDCD
:104760008CF2FF1F80B584B000AF786001F050FA82
:104770007B68002B02D1234B1B6800E07B68FB6049
:10478000FB680433181CFFF7C1F9FB689B6A002B18
:1047900004D0FB681833181CFFF7B8F9FB68043322
:1047A000194A101C191CFFF759F901F041FA174B6F
:1047B0001B68002B05D001F02BFA00F0B3FB01F0D1
:1047C00037FA104B1B68FA689A4218D10F4B1B68D6
:1047D000002B08D00E4B1B68002B01D072B6FEE7F1
:1047E00001F008FA0BE0084B1A680A4B1B689A4262
:1047F00003D1044B00221A6001E000F099F9BD4694
:1048000004B080BD8CF1FF1F50F2FF1F70F2FF1F3C
:104810008CF2FF1F64F2FF1F80B584B002AF174A0D
:10482000174B0021009117490191101C191C5A22A5
:104830000023FFF735FE031C7B607B68012B03D14F
:1048400000F0CEFC031C7B607B68012B0DD172B69F
:104850000D4B012252421A600C4B01221A600C4B84
:1048600000221A6001F0A4F904E07B68013301D151
:1048700072B6FEE7BD4602B080BDC046E94D0000FD
:104880006C74000088F2FF1F84F2FF1F70F2FF1F9C
:1048900068F2FF1F80B500AF034B1B685A1C024B28
:1048A0001A60BD4680BDC0468CF2FF1F80B584B043
:1048B00000AF0023FB600023BB603A4B1B68002B5A
:1048C00001D172B6FEE701F0A3F9364B1B685A1E00
:1048D000344B1A60334B1B68002B5CD1324B1B6886
:1048E000002B58D02FE0314BDB68DB68FB60FB68A6
:1048F0001833181CFFF70AF9FB680433181CFFF77C
:1049000005F9FB68DA6A2A4B1B689A4203D9FB68EF
:10491000DA6A274B1A60FB68DA6A131C9B009B1843
:104920009B00244A9A18FB680433101C191CFFF7DB
:1049300095F8FB68DA6A204B1B68DB6A9A4202D35F
:104940001E4B01221A60194B1B68002BCBD1FB6850
:10495000002B01D000F0E6FA194B1B687B607B68E6
:10496000002B10D000F03CF8031C002B02D0134B9E
:1049700001221A607B68013B7B607B68002BF1D1D0
:104980000F4B00221A600D4B1B68002B03D0012334
:10499000BB6001F02FF901F04BF9BB68181CBD4654
:1049A00004B080BD8CF2FF1F64F2FF1F24F2FF1FD2
:1049B0006CF2FF1F90F1FF1F8CF1FF1F78F2FF1FB9
:1049C00074F2FF1F80B582B000AF044B1B687B60A0
:1049D0007B68181CBD4602B080BDC04668F2FF1F50
:1049E00080B586B000AF00237B61464B1B68002B6F
:1049F00000D076E0444B1B6801333B61424B3A697F
:104A00001A603B69002B17D1404B1B681B68002BB9
:104A100001D072B6FEE73D4B1B68FB603C4B1A6849
:104A20003A4B1A603A4BFA681A603A4B1B685A1CA8
:104A3000384B1A6000F076FA374B1B683A699A4295
:104A40004ED3324B1B681B68002B01D1012300E0C1
:104A50000023002B04D0304B012252421A603FE069
:104A60002A4B1B68DB68DB68BB60BB685B687B60EC
:104A70003A697B689A4203D2274B7A681A602FE022
:104A8000BB680433181CFFF741F8BB689B6A002B16
:104A900004D0BB681833181CFFF738F8BB68DA6A13
:104AA0001E4B1B689A4203D9BB68DA6A1B4B1A601B
:104AB000BB68DA6A131C9B009B189B00184A9A1863
:104AC000BB680433101C191CFEF7C8FFBB68DA6A08
:104AD000144B1B68DB6A9A4201D301237B61B0E768
:104AE00004E0114B1B685A1C0F4B1A600F4B1B68DC
:104AF000002B01D001237B617B69181CBD4606B0E9
:104B000080BDC0468CF2FF1F68F2FF1F1CF2FF1F22
:104B100020F2FF1F7CF2FF1F84F2FF1F6CF2FF1FC9
:104B200090F1FF1F8CF1FF1F74F2FF1F78F2FF1F3F
:104B300080B582B000AF214B1B68002B03D0204B07
:104B400001221A6037E01E4B00221A601D4B1B68C1
:104B50007B6007E07B68002B01D172B6FEE77B68C3
:104B6000013B7B6018497A68131C9B009B189B00D3
:104B70005B58002BEED07A68131C9B009B189B009F
:104B8000114A9B183B603B685B685A683B685A60F7
:104B90003B685A683B6808339A4204D13B685B68BB
:104BA0005A683B685A603B685B68DA68074B1A6072
:104BB000044B7A681A60BD4602B080BD8CF2FF1FBC
:104BC00078F2FF1F6CF2FF1F90F1FF1F8CF1FF1FA7
:104BD00080B582B000AF786039607B68002B01D16E
:104BE00072B6FEE7074B1B6818337A68101C191C55
:104BF000FEF756FF3B68181C012100F09DFABD46E8
:104C000002B080BD8CF1FF1F80B584B000AFF860AA
:104C1000B9607A60FB68002B01D172B6FEE70B4BDE
:104C20001B681833FA68101C191CFEF717FF7B6805
:104C3000002B02D001235B42BB60BA687B68101C6A
:104C4000191C00F079FABD4604B080BD8CF1FF1F3D
:104C500080B584B000AF78607B68DB68DB68BB60E0
:104C6000BB68002B01D172B6FEE7BB681833181C75
:104C7000FEF74CFF1E4B1B68002B1DD1BB68043395
:104C8000181CFEF743FFBB68DA6A1A4B1B689A428E
:104C900003D9BB68DA6A174B1A60BB68DA6A131C5F
:104CA0009B009B189B00144A9A18BB680433101C85
:104CB000191CFEF7D3FE06E0BB6818330F4A101C20
:104CC000191CFEF7CBFEBB68DA6A0D4B1B68DB6A6A
:104CD0009A4205D90123FB600A4B01221A6001E0C8
:104CE0000023FB60FB68181CBD4604B080BDC046B5
:104CF0008CF2FF1F6CF2FF1F90F1FF1F24F2FF1FC9
:104D00008CF1FF1F78F2FF1F80B582B000AF786092
:104D10007B68002B01D172B6FEE7054B1A687B68F1
:104D20001A60044B1A687B685A60BD4602B080BDA9
:104D30007CF2FF1F68F2FF1F80B584B000AF78607F
:104D400039607B68002B01D172B6FEE73B68002B0F
:104D500001D172B6FEE700F05BFF1C4B1B68BB6025
:104D60003B681B68013302D10023FB6027E07B68AE
:104D70001A68174B1B689A4207D07B685A68BB6851
:104D80009A4202D80123FB6019E07B685B68BA682D
:104D9000D21A3B681B689A420FD23B681A687B683C
:104DA0005968BB68CB1AD2183B681A607B68181C1C
:104DB000FFF7AAFF0023FB6001E00123FB6000F086
:104DC00037FFFB68181CBD4604B080BD68F2FF1FAA
:104DD0007CF2FF1F80B500AF024B01221A60BD4676
:104DE00080BDC04678F2FF1F80B582B000AF78600A
:104DF00000F04EF8034B1B68012B01D900F0FAFEBE
:104E0000F6E7C04690F1FF1F80B582B000AF0023E7
:104E10007B600CE07A68131C9B009B189B00144A73
:104E20009B18181CFEF7F2FD7B6801337B607B68E2
:104E3000042BEFD90F4B181CFEF7E8FD0E4B181C86
:104E4000FEF7E4FD0D4B181CFEF7E0FD0C4B181CA3
:104E5000FEF7DCFD0B4B181CFEF7D8FD0A4B054A8C
:104E60001A600A4B044A1A60BD4602B080BDC046B3
:104E700090F1FF1FF4F1FF1F08F2FF1F24F2FF1F44
:104E800038F2FF1F50F2FF1F1CF2FF1F20F2FF1F1E
:104E900080B582B000AF27E0FFF7FCFC164B1B6823
:104EA0005A425341DBB27B60FFF700FD7B68002B69
:104EB0001AD100F0ADFE104BDB68DB683B603B684D
:104EC0000433181CFEF722FE0C4B1B685A1E0B4BBA
:104ED0001A600B4B1B685A1E094B1A6000F0A8FEA3
:104EE0003B68181C00F00EF8054B1B68002BD3D153
:104EF000BD4602B080BDC04638F2FF1F64F2FF1FFE
:104F00004CF2FF1F80B582B000AF78607B681B6BEE
:104F1000181C00F0F7FC7B68181C00F0F3FCBD4681
:104F200002B080BD80B582B000AF0D4B1B681B681E
:104F3000002B01D1012300E00023002B04D0094BFA
:104F4000012252421A6008E0054B1B68DB68DB68EF
:104F50007B607B685A68034B1A60BD4602B080BD17
:104F60001CF2FF1F84F2FF1F80B582B000AF0A4B16
:104F70001B68002B02D101237B6008E0074B1B68F4
:104F8000002B02D102237B6001E000237B607B6861
:104F9000181CBD4602B080BD70F2FF1F8CF2FF1FCF
:104FA00080B584B000AF78607B68FB607B68002BC5
:104FB0004AD0FB68DA6A264B1B68DB6A9A4243D206
:104FC000FB689B69002B06DB214B1B68DB6A052213
:104FD000D21AFB689A61FB685969FB68DA6A131C8C
:104FE0009B009B189B001B4A9B18994201D10123EF
:104FF00000E00023002B22D0FB680433181CFEF7CE
:1050000085FD134B1B68DA6AFB68DA62FB68DA6AB3
:10501000114B1B689A4203D9FB68DA6A0E4B1A607F
:10502000FB68DA6A131C9B009B189B00094A9A18BC
:10503000FB680433101C191CFEF710FD04E0044B40
:105040001B68DA6AFB68DA62BD4604B080BDC04600
:105050008CF1FF1F90F1FF1F6CF2FF1F80B584B031
:1050600000AF78607B68BB600023FB607B68002B2F
:1050700044D0254B1B68BA689A4201D072B6FEE74D
:10508000BB685B6D002B01D172B6FEE7BB685B6D40
:105090005A1EBB685A65BB68DA6ABB681B6D9A42C8
:1050A0002CD0BB685B6D002B28D1BB680433181C67
:1050B000FEF72CFDBB681A6DBB68DA62BB68DB6A61
:1050C0000522D21ABB689A61BB68DA6A0F4B1B686B
:1050D0009A4203D9BB68DA6A0C4B1A60BB68DA6A79
:1050E000131C9B009B189B00094A9A18BB68043349
:1050F000101C191CFEF7B2FC0123FB60FB68181C96
:10510000BD4604B080BDC0468CF1FF1F6CF2FF1F8E
:1051100090F1FF1F80B500AF064B1B68002B04D039
:10512000044B1B685A6D01325A65024B1B68181CF0
:10513000BD4680BD8CF1FF1F80B584B000AF7860A4
:105140003960214B1B68FB60204B1B680433181C23
:10515000FEF7DCFC7B6801330BD13B68002B08D0E9
:105160001A4B1B6804331A4A101C191CFEF776FCF4
:1051700026E0FA687B68D318BB60144B1B68BA68DA
:105180005A60BA68FB689A4209D2124B1A680F4BF0
:105190001B680433101C191CFEF782FC10E00E4B38
:1051A0001A680A4B1B680433101C191CFEF778FCA4
:1051B0000A4B1B68BA689A4202D2084BBA681A6056
:1051C000BD4604B080BDC04668F2FF1F8CF1FF1FD2
:1051D00050F2FF1F20F2FF1F1CF2FF1F84F2FF1F7F
:1051E00080B584B002AF00237B6000F08FFA0E4BD5
:1051F0001B68002B0DD00D4A0D4B042100910D4969
:105200000191101C191CB4220023FFF749F9031C5B
:105210007B607B68002B01D172B6FEE77B68181CAF
:10522000BD4602B080BDC046C0F2FF1F595300000A
:1052300074740000C4F2FF1F80B58AB000AFF8603C
:10524000B9607A603B6000237B62FB68002B01D170
:1052500072B6FEE7224B1B68002B3BD03B1C14337D
:10526000BA681A603B1C14337A685A603B1C1433CA
:10527000FA689A60BB68052B1FDCFFF775FE031CFC
:10528000022B0DD1164B19683A1C14323B6B081CCB
:10529000111C1A1C0023FEF70FFD031C7B6219E092
:1052A0000F4B1A683B1C1433101C191C00220023DE
:1052B000FEF702FD031C7B620CE0094B19683A1CE7
:1052C00014323B68081C111C1A1C0023FEF7C4FD95
:1052D000031C7B627B6A181CBD460AB080BDC046B9
:1052E000C0F2FF1F80B586B002AF78603960194BFD
:1052F0001B68DB68DB68FB60FB680433181CFEF787
:1053000005FCFB68DB69012B1CD1FB689A697B6893
:10531000D118F8683A687B6800F0BAF8031C002BD3
:1053200010D0FA687B6800210091101C00211A1C23
:105330000023FFF781FF031CBB60BB68002B01D17A
:1053400072B6FEE7FB685B6AFA68101C9847BD46B8
:1053500004B080BDB8F2FF1F80B584B000AF7860A4
:105360003B1C0833181C00F053F8031CFB60BB689F
:10537000FA68101C191C00F003F800F0CBF8EFE7F6
:1053800080B584B000AF78603960FFF783FA3B1CCA
:105390000833181C00F05CF8031CFB60BB68002B92
:1053A0002CD13B68002B0CD17A68FB689A4208D854
:1053B000FFF77CFA7A68FB68101C191CFFF792FF54
:1053C0001EE03B68002B06D00F4B1B681B685A423F
:1053D0005341DBB23B600D4B19687A68FB68D21A07
:1053E0003B68081C111C1A1CFFF722F8FFF75EFA35
:1053F000031C002B04D100F0FDFB01E0FFF756FA7F
:10540000BD4604B080BDC046BCF2FF1FC0F2FF1F06
:1054100080B584B000AF78600C4B1B681B685A42A3
:105420005341DBB21A1C7B681A607B681B68002B37
:1054300005D1064B1B68DB681B68FB6001E000239D
:10544000FB60FB68181CBD4604B080BDB8F2FF1FAE
:1054500080B584B000AF7860FFF7B4FA031CFB603E
:105460000A4B1B68FA689A4205D200F0F3F87B6891
:1054700001221A6002E07B6800221A60034BFA687E
:105480001A60FB68181CBD4604B080BDC8F2FF1F3F
:1054900080B586B000AFF860B9607A603B600023E9
:1054A0007B61FB68BA685A60FB68FA681A61BA687F
:1054B0007B689A4212D87A683B68D21AFB689B696B
:1054C0009A4202D301237B611BE0104B1A68FB68F0
:1054D0000433101C191CFEF7E3FA12E07A683B68EB
:1054E0009A4206D2BA683B689A4202D301237B6192
:1054F00007E0074B1A68FB680433101C191CFEF701
:10550000CFFA7B69181CBD4606B080BDBCF2FF1FF8
:10551000B8F2FF1F80B58CB002AF85E03B1C0833AA
:105520001B68002B11DA3B1C083304337B627B6A57
:10553000002B01D172B6FEE77B6A1A687B6A596854
:105540007B6A9B68081C191C90473B1C08331B682E
:10555000002B69DB3B1C08339B683B623B6A5B6941
:10556000002B04D03B6A0433181CFEF7CFFA3B1D16
:10557000181CFFF76DFF031CFB613B1C08331B6805
:10558000092B4ED89A00314BD3181B689F463B1C01
:1055900008335A683B6A9B69D1183B1C08335B6827
:1055A000386AFA69FFF774FF031C002B1ED03B6AB0
:1055B0005B6A3A6A101C98473B6ADB69012B15D17C
:1055C0003B1C08335A683B6A9B69D3183A6A00212E
:1055D0000091101C00211A1C0023FFF72DFE031C54
:1055E000BB61BB69002B01D172B6FEE71CE03B1C1E
:1055F00008335A683B6A9A613B6A9B69002B01D168
:1056000072B6FEE73B6A9A69FB69D118386AFA6993
:10561000FB69FFF73DFF07E03B6A181C00F072F9D9
:1056200002E0C04600E0C046094B1A683B1C083344
:10563000101C191C00220023FEF784FC031C002B05
:1056400000D06BE7BD460AB080BDC0463879000087
:10565000C0F2FF1F80B588B002AF40E0294B1B6845
:10566000DB681B687B61274B1B68DB68DB683B6181
:105670003B690433181CFEF749FA3B695B6A3A69D7
:10568000101C98473B69DB69012B28D13B699A695B
:105690007B69D318FB60FA687B699A420ED93B6933
:1056A000FA685A603B693A691A61164B1A683B6995
:1056B0000433101C191CFEF7F3F910E03A697B69FA
:1056C00000210091101C00211A1C0023FFF7B4FDDB
:1056D000031CBB60BB68002B01D172B6FEE7094B0F
:1056E0001B681B68002BB9D1064B1B687B60064BFF
:1056F0001A68044B1A60044B7A681A60BD4606B0FB
:1057000080BDC046B8F2FF1FBCF2FF1F80B500AFDE
:1057100000F07EFA144B1B68002B20D1134B181C91
:10572000FEF774F9124B181CFEF770F9114B0F4A73
:105730001A60114B0E4A1A600A2010210022FEF74F
:1057400063FA021C084B1A60074B1B68002B06D03B
:10575000054B1A68094B101C191CFEF71DFE00F0C2
:1057600067FABD4680BDC046C0F2FF1F90F2FF1F22
:10577000A4F2FF1FB8F2FF1FBCF2FF1F7C740000F1
:1057800098B500AF084C094B1B68181CC821FAF7E4
:105790000DFF031C013B2360054B00221A60054BE3
:1057A00007221A60BD4698BD14E000E098F0FF1F84
:1057B00018E000E010E000E080B586B000AF78604F
:1057C0000023FB60FFF766F8494B1B68002B01D1F3
:1057D00000F0DEF8474B1B687A68134000D079E090
:1057E0007B68002B12D008237A68D3187B607A6814
:1057F000072313400AD07B680722934308337B605A
:105800007A680723134001D072B6FEE77B68002B4D
:1058100060D0394B1B687A689A425BD8374B3B6142
:10582000364B1B687B6104E07B693B617B691B68CD
:105830007B617B695A687B689A4203D27B691B68EB
:10584000002BF1D12A4B1B687A699A4242D03B69FE
:105850001A680823D318FB607B691A683B691A60D1
:105860007B695A687B68D21A08235B009A4216D972
:105870007A697B68D318BB60BA680723134001D0EC
:1058800072B6FEE77B695A687B68D21ABB685A60B9
:105890007B697A685A60BB68181C00F0D7F8164B11
:1058A0001A687B695B68D21A134B1A60124B1A682C
:1058B000134B1B689A4203D20F4B1A68104B1A60A5
:1058C0007B695A680B4B1B681A437B695A607B697A
:1058D00000221A60FEF7EAFFFA680723134001D09E
:1058E00072B6FEE7FB68181CBD4606B080BDC04618
:1058F000D41A0020E01A0020D81A0020CC1A002068
:10590000DC1A002080B584B000AF78607B68FB6053
:105910007B68002B35D008235B42FA68D318FB6004
:10592000FB68BB60BB685A68174B1B68134001D10A
:1059300072B6FEE7BB681B68002B01D072B6FEE7AB
:10594000BB685A68104B1B6813401AD0BB681B68B1
:10595000002B16D1BB685A680B4B1B68DB431A40FF
:10596000BB685A60FEF796FFBB685A68074B1B6816
:10597000D218064B1A60BB68181C00F067F8FEF7D7
:1059800095FFBD4604B080BDE01A0020D81A002063
:1059900080B584B000AFA0239B01BB60254BFB60AA
:1059A000FA68072313400CD0FB680733FB60FB68E1
:1059B00007229343FB60BA68FB68D21A1D4BD318C9
:1059C000BB60FB687B601C4B7A681A601A4B002234
:1059D0005A607A68BB68D318FB600823FA68D31A48
:1059E000FB60FB6807229343FB60FA68134B1A6065
:1059F000124B1B6800225A60104B1B6800221A6071
:105A00007B683B603B68FA68D21A3B685A600B4B74
:105A10001A683B681A603B685A68094B1A603B6811
:105A20005A68084B1A60084B802212061A60BD465D
:105A300004B080BDCCF2FF1FCC1A0020D41A002085
:105A4000DC1A0020D81A0020E01A002080B584B0AB
:105A500000AF7860264BFB6002E0FB681B68FB60D0
:105A6000FB681A687B689A42F7D3FB68BB60FB68E7
:105A70005B68BA68D2187B689A4208D1FB685A689A
:105A80007B685B68D218FB685A60FB687B607B6848
:105A9000BB607B685B68BA68D218FB681B689A4277
:105AA00018D1FB681A68134B1B689A420DD07B68AB
:105AB0005A68FB681B685B68D2187B685A60FB6891
:105AC0001B681A687B681A6008E00A4B1A687B68D2
:105AD0001A6003E0FB681A687B681A60FA687B68E2
:105AE0009A4202D0FB687A681A60BD4604B080BD55
:105AF000CC1A0020D41A002080B584B000AFF86022
:105B0000B9607A60FB68043BFB60FB68802252044A
:105B10001A60FB68043BFB60BA68FB681A60FB68AC
:105B2000043BFB60084AFB681A60FB68143BFB609F
:105B30007A68FB681A60FB68203BFB60FB68181CF6
:105B4000BD4604B080BDC0464D5B000080B500AFCF
:105B5000034B1B68013301D072B6FEE772B6FEE755
:105B600088F0FF1F80B500AFBD4680BD000000007B
:105B70000B4A13681868203080F30988022080F3EC
:105B80001488BFF36F8F3FBCAE4608BC04BC62B63E
:105B90001847C046C046C046C046C046C046C0467C
:105BA0008CF1FF1FC046C046C046C046C046C04636
:105BB00080B500AF0D4B0D4A1268FF2109040A435E
:105BC0001A600A4B094A1268FF2109060A431A6043
:105BD000FFF7D6FD064B00221A60FFF7C9FFFFF75B
:105BE000B5FF0023181CBD4680BDC04620ED00E077
:105BF00088F0FF1F80B500AF044B802252051A6069
:105C0000BFF34F8FBFF36F8FBD4680BD04ED00E043
:105C100080B500AF72B6054B1B685A1C034B1A6067
:105C2000BFF34F8FBFF36F8FBD4680BD88F0FF1F5E
:105C300080B500AF084B1B68002B01D172B6FEE7A0
:105C4000054B1B685A1E044B1A60034B1B68002B44
:105C500000D162B6BD4680BD88F0FF1FEFF3108013
:105C600072B670470023181C80F310887047C04636
:105C7000EFF309800E4B1A6820381060F0C04446DC
:105C80004D4656465F46F0C008B572B6FEF750FF67
:105C900062B60CBC116808681030F0C8A046A9466E
:105CA000B246BB4680F309882038F0C81847C04682
:105CB0008CF1FF1FC046C046C046C046C046C04625
:105CC00080B582B000AFFFF7C9FF031C7B60FEF711
:105CD00087FE031C002B03D0054B802252051A605F
:105CE0007B68181CFFF7C0FFBD4602B080BDC046F0
:105CF00004ED00E080B584B000AFF860B9607A6070
:105D00000A4BFA681107C02292051140BA681006C2
:105D100080225204024011437A6810058022520307
:105D200002400A435A62BD4604B080BD0080044070
:105D300080B500AF074B1B68002B06D10649074A08
:105D4000074B081C7F21FBF715F9024B1B68181C39
:105D5000BD4680BD641D0020847400008C79000065
:105D60009C74000080B582B000AFFFF7E1FF031C18
:105D70007B607B68002B01D17B682DE0184B1B7882
:105D8000DBB21A1C38231340DA08FB1C1A70FB1C08
:105D90001B787A68111CD9400B1C7B60114B1B7857
:105DA000DBB21A1C042313409A08BB1C1A70BB1CDC
:105DB0001B78002B0FD0FB1C1B78002B08DB052B5E
:105DC00002DD072B04DC06E07B685B097B6002E0F8
:105DD00000237B60C0467B68181CBD4602B080BDB6
:105DE000004006400050064080B500AF084B1B79CC
:105DF000DBB21A1C102313401B0903D1FFF7B2FFBB
:105E0000031C01E0034B1B68181CBD4680BDC04647
:105E1000004006408CF0FF1F80B584B000AF786072
